{
  "_format": "hh-sol-artifact-1",
  "contractName": "Donation",
  "sourceName": "contracts/Donation.sol",
  "abi": [
    {
      "inputs": [],
      "stateMutability": "nonpayable",
      "type": "constructor"
    },
    {
      "inputs": [],
      "name": "depositMatic",
      "outputs": [],
      "stateMutability": "payable",
      "type": "function"
    },
    {
      "inputs": [
        {
          "internalType": "uint256",
          "name": "",
          "type": "uint256"
        }
      ],
      "name": "donors",
      "outputs": [
        {
          "internalType": "uint256",
          "name": "amountDonated",
          "type": "uint256"
        },
        {
          "internalType": "address",
          "name": "donorAddress",
          "type": "address"
        }
      ],
      "stateMutability": "view",
      "type": "function"
    },
    {
      "inputs": [],
      "name": "getAccountBalance",
      "outputs": [
        {
          "internalType": "uint256",
          "name": "",
          "type": "uint256"
        }
      ],
      "stateMutability": "view",
      "type": "function"
    },
    {
      "inputs": [],
      "name": "getDonors",
      "outputs": [
        {
          "components": [
            {
              "internalType": "uint256",
              "name": "amountDonated",
              "type": "uint256"
            },
            {
              "internalType": "address",
              "name": "donorAddress",
              "type": "address"
            }
          ],
          "internalType": "struct Donation.Donors[]",
          "name": "",
          "type": "tuple[]"
        }
      ],
      "stateMutability": "view",
      "type": "function"
    },
    {
      "inputs": [],
      "name": "withdrawMatic",
      "outputs": [],
      "stateMutability": "payable",
      "type": "function"
    }
  ],
  "bytecode": "0x608060405234801561001057600080fd5b50336000806101000a81548173ffffffffffffffffffffffffffffffffffffffff021916908373ffffffffffffffffffffffffffffffffffffffff1602179055506108ff806100606000396000f3fe60806040526004361061004a5760003560e01c8063063699451461004f5780634abfa163146100595780636896fabf14610097578063810074c6146100c257806396f300d4146100cc575b600080fd5b6100576100f7565b005b34801561006557600080fd5b50610080600480360381019061007b919061052a565b6101e6565b60405161008e929190610803565b60405180910390f35b3480156100a357600080fd5b506100ac61023a565b6040516100b991906107e8565b60405180910390f35b6100ca6102d1565b005b3480156100d857600080fd5b506100e16103c8565b6040516100ee9190610766565b60405180910390f35b600034141561013b576040517f08c379a000000000000000000000000000000000000000000000000000000000815260040161013290610788565b60405180910390fd5b600160405180604001604052803481526020013373ffffffffffffffffffffffffffffffffffffffff1681525090806001815401808255809150506001900390600052602060002090600202016000909190919091506000820151816000015560208201518160010160006101000a81548173ffffffffffffffffffffffffffffffffffffffff021916908373ffffffffffffffffffffffffffffffffffffffff1602179055505050565b600181815481106101f657600080fd5b90600052602060002090600202016000915090508060000154908060010160009054906101000a900473ffffffffffffffffffffffffffffffffffffffff16905082565b60008060009054906101000a900473ffffffffffffffffffffffffffffffffffffffff1673ffffffffffffffffffffffffffffffffffffffff163373ffffffffffffffffffffffffffffffffffffffff16146102cb576040517f08c379a00000000000000000000000000000000000000000000000000000000081526004016102c2906107a8565b60405180910390fd5b47905090565b60008054906101000a900473ffffffffffffffffffffffffffffffffffffffff1673ffffffffffffffffffffffffffffffffffffffff163373ffffffffffffffffffffffffffffffffffffffff161461035f576040517f08c379a0000000000000000000000000000000000000000000000000000000008152600401610356906107c8565b60405180910390fd5b60008054906101000a900473ffffffffffffffffffffffffffffffffffffffff1673ffffffffffffffffffffffffffffffffffffffff166108fc479081150290604051600060405180830381858888f193505050501580156103c5573d6000803e3d6000fd5b50565b606060008054906101000a900473ffffffffffffffffffffffffffffffffffffffff1673ffffffffffffffffffffffffffffffffffffffff163373ffffffffffffffffffffffffffffffffffffffff1614610458576040517f08c379a000000000000000000000000000000000000000000000000000000000815260040161044f906107a8565b60405180910390fd5b6001805480602002602001604051908101604052809291908181526020016000905b8282101561050c5783829060005260206000209060020201604051806040016040529081600082015481526020016001820160009054906101000a900473ffffffffffffffffffffffffffffffffffffffff1673ffffffffffffffffffffffffffffffffffffffff1673ffffffffffffffffffffffffffffffffffffffff16815250508152602001906001019061047a565b50505050905090565b600081359050610524816108b2565b92915050565b60006020828403121561053c57600080fd5b600061054a84828501610515565b91505092915050565b600061055f8383610719565b60408301905092915050565b61057481610876565b82525050565b61058381610876565b82525050565b60006105948261083c565b61059e8185610854565b93506105a98361082c565b8060005b838110156105da5781516105c18882610553565b97506105cc83610847565b9250506001810190506105ad565b5085935050505092915050565b60006105f4602683610865565b91507f596f75206e65656420746f206465706f73697420736f6d6520616d6f756e742060008301527f4d415449432100000000000000000000000000000000000000000000000000006020830152604082019050919050565b600061065a603283610865565b91507f596f7520646f6e2774206861766520746865207065726d697373696f6e20746f60008301527f20636865636b207468652062616c616e636500000000000000000000000000006020830152604082019050919050565b60006106c0602f83610865565b91507f596f7520646f6e2774206861766520746865207065726d697373696f6e20746f60008301527f2077697468647261772066756e647300000000000000000000000000000000006020830152604082019050919050565b60408201600082015161072f6000850182610748565b506020820151610742602085018261056b565b50505050565b610751816108a8565b82525050565b610760816108a8565b82525050565b600060208201905081810360008301526107808184610589565b905092915050565b600060208201905081810360008301526107a1816105e7565b9050919050565b600060208201905081810360008301526107c18161064d565b9050919050565b600060208201905081810360008301526107e1816106b3565b9050919050565b60006020820190506107fd6000830184610757565b92915050565b60006040820190506108186000830185610757565b610825602083018461057a565b9392505050565b6000819050602082019050919050565b600081519050919050565b6000602082019050919050565b600082825260208201905092915050565b600082825260208201905092915050565b600061088182610888565b9050919050565b600073ffffffffffffffffffffffffffffffffffffffff82169050919050565b6000819050919050565b6108bb816108a8565b81146108c657600080fd5b5056fea264697066735822122092b690fbd55095dd7a122a76b0b84490747056f3c375b316d9ec387603c141bb64736f6c63430008000033",
  "linkReferences": {},
  "deployedLinkReferences": {}
}